{
  "_format": "hh-sol-artifact-1",
  "contractName": "CounselDeLaMancha",
  "sourceName": "contracts/CounselDeLaMancha.sol",
  "abi": [
    {
      "inputs": [],
      "name": "askOracle",
      "outputs": [
        {
          "internalType": "string",
          "name": "",
          "type": "string"
        }
      ],
      "stateMutability": "view",
      "type": "function"
    },
    {
      "inputs": [],
      "name": "getAllResponses",
      "outputs": [
        {
          "internalType": "string[20]",
          "name": "",
          "type": "string[20]"
        }
      ],
      "stateMutability": "view",
      "type": "function"
    }
  ],
  "bytecode": "0x6080604052604051806102800160405280604051806060016040528060408152602001610fe46040913981526020016040518060600160405280603d8152602001610cf0603d91398152602001604051806060016040528060408152602001610dd66040913981526020016040518060600160405280603481526020016110246034913981526020016040518060600160405280603d8152602001610d69603d91398152602001604051806060016040528060378152602001610e58603791398152602001604051806060016040528060338152602001610ec76033913981526020016040518060600160405280603c81526020016110d4603c913981526020016040518060600160405280603a8152602001611058603a91398152602001604051806060016040528060398152602001610cb7603991398152602001604051806060016040528060378152602001610f2b6037913981526020016040518060600160405280603c8152602001610d2d603c91398152602001604051806060016040528060388152602001610e8f603891398152602001604051806060016040528060318152602001610efa603191398152602001604051806060016040528060308152602001610da66030913981526020016040518060800160405280604281526020016110926042913981526020016040518060600160405280603e8152602001610fa6603e91398152602001604051806080016040528060448152602001610f62604491398152602001604051806080016040528060428152602001610e166042913981526020016040518060600160405280603b8152602001611110603b91398152506000906014610276929190610289565b5034801561028357600080fd5b50610678565b82601481019282156102c4579160200282015b828111156102c35782518290816102b391906105a6565b509160200191906001019061029c565b5b5090506102d191906102d5565b5090565b5b808211156102f557600081816102ec91906102f9565b506001016102d6565b5090565b508054610305906103bf565b6000825580601f106103175750610336565b601f0160209004906000526020600020908101906103359190610339565b5b50565b5b8082111561035257600081600090555060010161033a565b5090565b600081519050919050565b7f4e487b7100000000000000000000000000000000000000000000000000000000600052604160045260246000fd5b7f4e487b7100000000000000000000000000000000000000000000000000000000600052602260045260246000fd5b600060028204905060018216806103d757607f821691505b6020821081036103ea576103e9610390565b5b50919050565b60008190508160005260206000209050919050565b60006020601f8301049050919050565b600082821b905092915050565b6000600883026104527fffffffffffffffffffffffffffffffffffffffffffffffffffffffffffffffff82610415565b61045c8683610415565b95508019841693508086168417925050509392505050565b6000819050919050565b6000819050919050565b60006104a361049e61049984610474565b61047e565b610474565b9050919050565b6000819050919050565b6104bd83610488565b6104d16104c9826104aa565b848454610422565b825550505050565b600090565b6104e66104d9565b6104f18184846104b4565b505050565b5b818110156105155761050a6000826104de565b6001810190506104f7565b5050565b601f82111561055a5761052b816103f0565b61053484610405565b81016020851015610543578190505b61055761054f85610405565b8301826104f6565b50505b505050565b600082821c905092915050565b600061057d6000198460080261055f565b1980831691505092915050565b6000610596838361056c565b9150826002028217905092915050565b6105af82610356565b67ffffffffffffffff8111156105c8576105c7610361565b5b6105d282546103bf565b6105dd828285610519565b600060209050601f83116001811461061057600084156105fe578287015190505b610608858261058a565b865550610670565b601f19841661061e866103f0565b60005b8281101561064657848901518255600182019150602085019450602081019050610621565b86831015610663578489015161065f601f89168261056c565b8355505b6001600288020188555050505b505050505050565b610630806106876000396000f3fe608060405234801561001057600080fd5b50600436106100365760003560e01c80632963c4ed1461003b578063ed6f079214610059575b600080fd5b610043610077565b604051610050919061039b565b60405180910390f35b610061610144565b60405161006e9190610407565b60405180910390f35b61007f61022d565b6000601480602002604051908101604052809291906000905b8282101561013b5783820180546100ae90610458565b80601f01602080910402602001604051908101604052809291908181526020018280546100da90610458565b80156101275780601f106100fc57610100808354040283529160200191610127565b820191906000526020600020905b81548152906001019060200180831161010a57829003601f168201915b505050505081526020019060010190610098565b50505050905090565b60606000601442334360405160200161015f9392919061052e565b6040516020818303038152906040528051906020012060001c610182919061059a565b90506000808260148110610199576101986105cb565b5b0180546101a590610458565b80601f01602080910402602001604051908101604052809291908181526020018280546101d190610458565b801561021e5780601f106101f35761010080835404028352916020019161021e565b820191906000526020600020905b81548152906001019060200180831161020157829003601f168201915b50505050509050809250505090565b6040518061028001604052806014905b606081526020019060019003908161023d5790505090565b600060149050919050565b600081905092915050565b6000819050919050565b600081519050919050565b600082825260208201905092915050565b60005b838110156102af578082015181840152602081019050610294565b60008484015250505050565b6000601f19601f8301169050919050565b60006102d782610275565b6102e18185610280565b93506102f1818560208601610291565b6102fa816102bb565b840191505092915050565b600061031183836102cc565b905092915050565b6000602082019050919050565b600061033182610255565b61033b8185610260565b93508360208202850161034d8561026b565b8060005b85811015610389578484038952815161036a8582610305565b945061037583610319565b925060208a01995050600181019050610351565b50829750879550505050505092915050565b600060208201905081810360008301526103b58184610326565b905092915050565b600082825260208201905092915050565b60006103d982610275565b6103e381856103bd565b93506103f3818560208601610291565b6103fc816102bb565b840191505092915050565b6000602082019050818103600083015261042181846103ce565b905092915050565b7f4e487b7100000000000000000000000000000000000000000000000000000000600052602260045260246000fd5b6000600282049050600182168061047057607f821691505b60208210810361048357610482610429565b5b50919050565b6000819050919050565b6000819050919050565b6104ae6104a982610489565b610493565b82525050565b600073ffffffffffffffffffffffffffffffffffffffff82169050919050565b60006104df826104b4565b9050919050565b60008160601b9050919050565b60006104fe826104e6565b9050919050565b6000610510826104f3565b9050919050565b610528610523826104d4565b610505565b82525050565b600061053a828661049d565b60208201915061054a8285610517565b60148201915061055a828461049d565b602082019150819050949350505050565b7f4e487b7100000000000000000000000000000000000000000000000000000000600052601260045260246000fd5b60006105a582610489565b91506105b083610489565b9250826105c0576105bf61056b565b5b828206905092915050565b7f4e487b7100000000000000000000000000000000000000000000000000000000600052603260045260246000fdfea26469706673582212208c942a675aff4bc4d478ef9c574bc80942ebdfe217bbfaca0964f08a709e1e1764736f6c634300081c00334e61792c2074686520737461727320616c69676e20616761696e737420746865652c2062726176652074686f7567682074686f75206172742e46656172206e6f742c20666f72207468652073746172732070726f636c61696d207468792076656e74757265206d6f737420617573706963696f7573214279206d7920736869656c642c207468697320717565737420697320646f6f6d656420617320612077696e646d696c6c27732064656669616e63652e4f206e6f626c6520736f756c2c2074687920646573697265207368616c6c20626c6f6f6d206c696b6520726f73657320696e204c61204d616e63686121576f652c207468792061696d2066616c74657273206c696b652061207371756972652073616e7320636f75726167652e4173204920616d2061206b6e696768742c20746879207061746820697320626c657373656420627920666f7274756e6527732072616469616e742068616e6421546865206f7261636c6520706f6e646572732c20666f72207468792071756573742064616e6365732062657477697874206c6967687420616e6420736861646f772e4279206d7920686f6e6f722c207468652068656176656e732064656372656520746879207375636365737320696e66616c6c69626c6521536f72726f77206265746964652c20666f722064657374696e792062617273207468792077617920776974682069726f6e2067617465732e52656a6f6963652c20666f72207468792061696d2069732061732074727565206173206d792073776f726427732065646765215468652068656176656e732066726f776e2075706f6e20746869732076656e747572652c206e6f626c652068656172742e4f2077656172792074726176656c65722c20746869732070617468206c656164732062757420746f20666f6c6c7927732061627973732e57686f2063616e207361793f205468652077696e6473206f66204c61204d616e636861207768697370657220726964646c6573206527656e20746f206b6e69676874732e5065726368616e63652c20746865206d69737473206f662066617465206f62736375726520746865206f7574636f6d65206f66207468792071756572792e4279207468652076616c6f72206f66206d79206c616e63652c20746879207175657374207368616c6c2066696e6420676c6f72696f757320747269756d706821566572696c792c207468652077696e6473206f662064657374696e792070726f70656c207468656520746f20766963746f727921416c61732c207468652066617465732077656176652061207461706573747279206f6620776f6520666f72207468697320656e646561766f722e496e2074727574682c20746869732070757273756974206973206173207661696e2061732063686173696e6720656e6368616e74656420656e6368616e746572732e496e2074727574682c207468792070757273756974207368616c6c2062652063726f776e65642077697468206c617572656c7320657465726e616c214d61796861702c2074686520616e73776572206c69657320696e2064656564732079657420756e77726f75676874206279207468792068616e642e",
  "linkReferences": {},
  "deployedLinkReferences": {}
}